:100000000C943A010C9459010C9459010C94590127
:100010000C9459010C9459010C9459010C945901F8
:100020000C9459010C9459010C9459010C945901E8
:100030000C9459010C9459010C9459010C945901D8
:100040000C9459010C9459010C9459010C945901C8
:100050000C9459010C942E090C9459010C945901DB
:100060000C9459010C9459010C9459010C945901A8
:100070000C9459010C9459010C9459010C94590198
:100080000C9459010C9459010C9459010C94590188
:100090000C9459010C945901000000000000005F0D
:1000A00000000003000300143E143E14242A7F2A9B
:1000B000124333086661364955225000050300009B
:1000C000001C2241000041221C0014083E081408B4
:1000D000083E0808005030000008080808080060C2
:1000E00060000020100804023E5149453E00040211
:1000F0007F00426151494622414949361814127F16
:100100001027454545393E494949320101710907E2
:100110003649494936264949493E003636000000ED
:10012000563600000814224100141414141400411F
:1001300022140802015109063E4159555E7E090903
:10014000097E7F494949363E414141227F41414133
:100150003E7F494949417F090909013E4141493AE8
:100160007F0808087F00417F4100304040403F7FCA
:10017000081422417F404040407F020C027F7F02F2
:1001800004087F3E4141413E7F090909061E2121A5
:10019000215E7F09090976264949493201017F011B
:1001A000013F4040403F1F2040201F7F2010207F04
:1001B00041221C224107087008076151494543004C
:1001C0007F41000002040810200000417F0004026B
:1001D0000102044040404040000102040020545409
:1001E00054787F4444443838444444443844444474
:1001F0007F385454541804047E0505085454543C64
:100200007F0804047800447D40002040443D007F86
:100210001028440000417F40007C047804787C086A
:1002200004047838444444387C1414140808141422
:10023000147C007C080404485454542004043F44B3
:10024000443C4040207C1C2040201C3C4030403C32
:1002500044281028440C5050503C4464544C4400F2
:100260000836414100007F0000414136080002018C
:100270000204020011241FBECFEFD0E2DEBFCDBFCB
:1002800016E0A0E0B1E0E2E4FCE100E00BBF02C058
:1002900007900D92AE3AB107D9F727E0AEEAB6E083
:1002A00001C01D92AF37B207E1F70E9474090C94A8
:1002B0001F0E0C9400006CE370E080E090E00E9460
:1002C00064088AEF94E09F938F930E94B80381E3C0
:1002D00095E09F938F930E94B80387E695E09F93E4
:1002E0008F930E94B8038CE995E09F938F930E94AF
:1002F000B80382ED95E09F938F930E94B80389E045
:1003000096E09F938F930E94B80360EA70E08EE6B8
:1003100090E00E9464088EE396E09F938F930E9482
:10032000B80364EB70E08CE390E00E94640880E521
:1003300096E09F938F930E94B8038DB79EB7409627
:100340000FB6F8949EBF0FBE8DBF08950F931F93F5
:10035000CF93DF93CDB7DEB728970FB6F894DEBF03
:100360000FBECDBFFB01FE83ED83E20FF31FF887C5
:10037000EF83282F9A838983840F951F482F9C83AE
:100380008B833A815C817E818E2F98850E94A505A2
:1003900028960FB6F894DEBF0FBECDBFDF91CF9188
:1003A0001F910F9108950F931F9341505109890197
:1003B0009A010E94A6011F910F9108950F931F9318
:1003C0008A0120E030E040E050E00E94A6011F9149
:1003D0000F9108959AE0699FB001112420E23DEF4A
:1003E0004AE050E0EAE08E9FC00111240C94D30152
:1003F0009AE0699FB001112420E030E04AE050E02B
:10040000EAE08E9FC00111240C94D3010F931F9337
:1004100000E014E029E030E04FE351E060E070E0FC
:1004200080E090E00E94A6012AE030E040E451E044
:1004300066EE70E080E090E00E94A6012FEE30E0D2
:1004400049E050E060E070E080E090E00E94A601AA
:1004500020EF30E04AE050E060E070E086E391E0B9
:100460000E94A6011F910F910895AF92BF92CF9263
:10047000DF92EF92FF920F931F93CF93DF932AE0C7
:10048000289F8001299F100D1124269F7001279F0E
:10049000F00C112458012AE0A20EB11CEA016A01F5
:1004A00088ECC80ED11C49915991B701C8010E942E
:1004B000DE01C80101968A159B0520F00A972FEFEF
:1004C000E21AF20ACC15DD0511F08C01ECCFDF91B8
:1004D000CF911F910F91FF90EF90DF90CF90BF9041
:1004E000AF900895AF92BF92CF92DF92EF92FF92BA
:1004F0000F931F93CF93DF932AE0FC012E9FC0013F
:100500002F9F900D11248C01075F1F4F269F7001B4
:10051000279FF00C11245701FAE0AF0EB11CEA013D
:100520006A0188ECC80ED11C49915991B701C801E4
:100530000E94DE01C70101968A159B0518F00A97F3
:1005400001501109CC15DD0511F07C01EDCFDF91D3
:10055000CF911F910F91FF90EF90DF90CF90BF90C0
:10056000AF900895AF92BF92CF92DF92EF92FF9239
:100570000F931F93CF93DF932AE0289F7001299F49
:10058000F00C1124269F8001279F100D1124075F76
:100590001F4F57018AE0A80EB11CEA016A0188ECDE
:1005A000C80ED11C49915991B801C7010E94DE01C2
:1005B000C70101968A159B0518F00A970150110989
:1005C000CC15DD0511F07C01EDCFDF91CF911F91AE
:1005D0000F91FF90EF90DF90CF90BF90AF90089574
:1005E000AF92BF92CF92DF92EF92FF920F931F9341
:1005F000CF93DF932AE0289F7001299FF00C1124EC
:10060000269F8001279F100D112458012AE0A20E79
:10061000B11CEA016A0188ECC80ED11C49915991BC
:10062000B801C7010E94DE01C80101968A159B0529
:1006300020F00A972FEFE21AF20ACC15DD0511F02F
:100640008C01ECCFDF91CF911F910F91FF90EF9034
:10065000DF90CF90BF90AF90089542E354E00C94A8
:1006600035024AE653E00C9435024115510521F458
:1006700042EA52E00C9435024130510521F442EA3D
:1006800052E00C94B2024330510521F442EA52E0A8
:100690000C94F00242EA52E00C94720241155105AA
:1006A00021F44AED51E00C9435024130510521F41A
:1006B0004AED51E00C94B2024330510521F44AED69
:1006C00051E00C94F0024AED51E00C947202411595
:1006D000510521F442E151E00C94350241305105BD
:1006E00021F442E151E00C94B2024330510521F46F
:1006F00042E151E00C94F00242E151E00C947202AC
:10070000E091BE06F091BF069F012F5F3F4F3093EF
:10071000BF062093BE06808308958A3034F09091FE
:10072000AF06911104C097E503C090E301C097E3C1
:10073000890F0E94800381E08093AE060895AC018A
:100740002091B0063091B10680E02417350720F0E3
:10075000241B350B8F5FF9CF3093B1062093B00681
:100760009091AE06911101C081110C948D030895F2
:100770004F925F926F927F928F929F92AF92BF92B1
:10078000CF92DF92EF92FF920F931F93CF93DF935D
:1007900000D0CDB7DEB7FE017596C190D1908F0124
:1007A00082EB882E86E0982E90E8692E712CF60157
:1007B0008081882309F401C1853231F02FEFC21AFC
:1007C000D20A0E947D07F3CFF6018181803329F0A0
:1007D000F2E0CF0ED11CE12C08C0F6018281960117
:1007E0002D5F3F4F6901EE24E39490ED980F9A300E
:1007F00078F4F601F12C6F0190ED980F9A3048F4DF
:100800008F2D880F880FF80EFF0CF90E8191F3CF12
:10081000F12C9092BF068092BE061092AE068336EF
:1008200009F486C0BCF4853209F491C024F488230D
:1008300009F4C3C08FC0883509F440C0823609F07E
:1008400089C0F801A080B1800E5F1F4F412C512C50
:10085000BB2461C0833709F474C01CF4843631F0C2
:1008600079C0853719F0883749F174C0580132E0F2
:10087000A30EB11CF801208131813093B106209381
:10088000B006843661F437FF0AC0319521953109ED
:100890003093B1062093B0068DE20E94800380E180
:1008A00097E20E949F0388EE93E00E949F0384E6F4
:1008B00090E00E949F038AE090E01BC091E08835A1
:1008C00009F090E09093AF065801F2E0AF0EB11C32
:1008D000F801808191819093B1068093B00680E009
:1008E00090E10E949F0380E091E00E949F0380E1DD
:1008F00090E00E949F038091B0060E948D038501C5
:1009000029C08EE20E948003FFEF4F1A5F0A28E0A1
:1009100042165104F9F0C301042C02C09595879545
:100920000A94E2F78A219B21892B59F381E3EACFCC
:10093000580132E0A30EB11CF80180810E948003AF
:10094000DECFF801208131810E5F1F4F05C085E2A7
:100950000E94800322EB36E0E091BE06F091BF06D4
:1009600010823093BF062093BE06C9010196FC0198
:1009700031974081442321F01F1414F4FA94F6CFE8
:100980009093BF068093BE061F146CF4E11002C062
:1009900080E201C080E329833A830E947D07FA94B4
:1009A0003A812981F1CF7901F70181917F01882373
:1009B00009F4FDCE0E947D07F7CF0F900F90DF91D5
:1009C000CF911F910F91FF90EF90DF90CF90BF904C
:1009D000AF909F908F907F906F905F904F90089511
:1009E0000C947D0793E89093B00091E09093B10050
:1009F0008093B30008959093D6068093D50626E39E
:100A000030E020930040009779F480EF90E09093DD
:100A1000D2068093D10680E491E09093D40680932F
:100A2000D30688E490E034C08130910579F480E405
:100A300091E09093D2068093D10680EF90E090935E
:100A4000D4068093D30688EE90E022C082309105D0
:100A500079F480EF90E09093D2068093D10680E401
:100A600091E09093D4068093D30688E890E010C07C
:100A7000039781F480E491E09093D2068093D106AD
:100A800080EF90E09093D4068093D30688E290E0C4
:100A9000809300418AE290E08093004020E030E0C3
:100AA00030930041209300418091D1069091D2066D
:100AB000019790930041809300418BE290E08093F6
:100AC000004030930041209300418091D3069091E3
:100AD000D406019790930041809300410895CF93ED
:100AE000873748F4883048F08D3350F48F3150F414
:100AF000803120F009C086E703C088E0C3E005C06C
:100B0000C0E003C0C1E001C0C2E021EB30E02093AF
:100B10000040C0930041682F70E080E090E00E94A8
:100B2000D60C9B01AC0160E070E080EF94E40E9481
:100B3000330C0E94A50C70E002C075956795CA95AC
:100B4000E2F760930041CF9108950F931F93CF93E5
:100B5000DF93CDB7DEB728970FB6F894DEBF0FBE90
:100B6000CDBF29833A834B835C836D837E838F83E0
:100B7000988769817A812B813C814D815E818F814B
:100B80009885EAE2F0E0E0930040709300416093C2
:100B900000413093004120930041EBE2F0E0E0930C
:100BA0000040509300414093004190930041809356
:100BB0000041ECE2F0E0E09300402F5F3F4F261B46
:100BC000370B0196841B950B2817390790F4482F93
:100BD0004770429FB001439F700D112453E09695DA
:100BE00087955A95E1F7829FA001839F500D1124AC
:100BF00011C0422F4770489FB001499F700D1124CA
:100C000043E0369527954A95E1F7289FA001299F53
:100C1000500D1124862F8770815028F010930041C9
:100C200000930041F9CFCB0123E0969587952A9553
:100C3000E1F7840F951F019708F11093004100938D
:100C40000041109300410093004110930041009334
:100C50000041109300410093004110930041009324
:100C60000041109300410093004110930041009314
:100C700000411093004100930041DDCF28960FB64C
:100C8000F894DEBF0FBECDBFDF91CF911F910F91C2
:100C90000895EF92FF920F931F93CF93DF93CDB7F9
:100CA000DEB728970FB6F894DEBF0FBECDBF2983FD
:100CB0003A834B835C836D837E838F83988789819E
:100CC0009A81EB80FC806D817E81AF81B8852AE2BC
:100CD00030E0209300409093004180930041F092D7
:100CE0000041E09200412BE230E0209300407093FD
:100CF000004160930041B0930041A09300412CE279
:100D000030E020930040E816F906A0F0A8019B010E
:100D10008A01A217B30760F04E5F5F4FF8010081B0
:100D2000118110930041009300412F5F3F4FF0CF9E
:100D30000196E9CF28960FB6F894DEBF0FBECDBF5F
:100D4000DF91CF911F910F91FF90EF9008950F9336
:100D50001F93CF93DF93CDB7DEB728970FB6F894E4
:100D6000DEBF0FBECDBFE1EDF6E017821682118621
:100D700010861A821982808191810197482F9C8365
:100D80008B831E821D8282819381019798878F8336
:100D90000485158520E03A815C8160E07E8198853C
:100DA0000E94A50528960FB6F894DEBF0FBECDBFF2
:100DB000DF91CF911F910F91089586E08093750088
:100DC00080E8809374003F9A249A8FEC97E0019713
:100DD000F1F700C0000047988FE39CE90197F1F715
:100DE00000C00000479A9FEF2DEE82E09150204016
:100DF0008040E1F700C0000088E290E0809300406E
:100E000081E190E0809300409FEF26E781E09150E0
:100E100020408040E1F700C0000021E030E08BEC92
:100E200090E0809300402093004180EC90E080931C
:100E3000004088E096E2909300418093004120E1D9
:100E400030E081EC90E0809300402093004185ECFD
:100E500090E0809300408EE395E39093004180936F
:100E6000004125EB30E087EC90E080930040209338
:100E7000004121E030E086EF90E080930040209335
:100E8000004180E090E0909300418093004125E58F
:100E900030E08AE390E0809300402093004181E0BD
:100EA00090E00E94FB040E94A706E1EDF6E01782A5
:100EB000168211861086158614868FEF9FEF938712
:100EC000828789E290E0809300409FE728E381E0F9
:100ED000915020408040E1F700C0000020E030E069
:100EE00085E390E08093004020930041EAE6F0E043
:100EF0008081806280832C9A08959F92AF92BF92E6
:100F0000CF92DF92EF92FF920F931F93CF93DF93D5
:100F10006091D7067091D8062091D9063091DA06F3
:100F20008A30F9F41092D8061092D706285F3F4F06
:100F30003093DA062093D9068091D3069091D40697
:100F40002817390708F4A1C0DF91CF911F910F91A5
:100F5000FF90EF90DF90CF90BF90AF909F900C9458
:100F6000A70690EE980F9F3508F08FC0A901495F42
:100F70005F4F082E000C990B8097E5E0E89FE00199
:100F8000E99FD00D11248BE290E0809300403093D4
:100F90000041209300415093004140930041CB0118
:100FA000DB0114960AE210E0ECE2EE2EF12CA81719
:100FB000B90780F100930040909300418093004175
:100FC0009093004180930041E0920040FC01E61BB9
:100FD000F70BEC0FFD1FE856FF4F94906901F1E00D
:100FE0004C155D05A8F0BF2EB92029F0A090DB06B6
:100FF000B090DC0604C0A090DD06B090DE06B09292
:101000000041A0920041EFEFCE1ADE0AFF0FE8CFB9
:101010000196CDCF6AE270E060930040909300416A
:101020008093004190930041809300418CE290E0D6
:10103000809300404217530758F08091DD0690914D
:10104000DE0690930041809300412F5F3F4FF2CF27
:101050008091D7069091D80606969093D8068093F3
:10106000D7062091D1063091D2068217930768F0F7
:101070001092D8061092D7068091D9069091DA0680
:1010800008969093DA068093D906DF91CF911F914D
:101090000F91FF90EF90DF90CF90BF90AF909F9017
:1010A00008950F931F93CF938C01C0E0F801EC0FCC
:1010B000F11D8081882321F00E947D07CF5FF6CF4C
:1010C000CF911F910F910895E1EDF6E0978386830C
:1010D000718760870895E1EDF6E0938782877587D1
:1010E000648708959093DC068093DB0608959093BF
:1010F000DE068093DD0608950F931F93CF938C0136
:101100007093D8066093D7065093DA064093D906B9
:10111000C0E0F801EC0FF11D8081882321F00E94CE
:101120007D07CF5FF6CFCF911F910F91089520914A
:10113000C0063091C1062832310544F540910601C0
:10114000509107014732510531F44FEF5FEF509353
:1011500007014093060140910601509107014F5F3E
:101160005F4F5093070140930601440F551F440FF2
:10117000551FFA01E152F94F608371838283938393
:101180002F5F3F4F3093C1062093C0060895809192
:10119000C2069091C3069C012F5F3F4F3093C30658
:1011A0002093C206880F991F880F991FFC01E152F6
:1011B000F94F60817181828193812832310521F458
:1011C0001092C3061092C2062091C0063091C1064B
:1011D000215031093093C1062093C0060895E1E6FD
:1011E000F0E080E8808310820E94DD0688B18C6385
:1011F00088B9779A82E084BD83E085BD8CE787BD9E
:10120000EEE6F0E08081826080830895782F20915F
:10121000C2064091C0065091C1064150510930E0CC
:1012200080E0E32FF0E0E417F507BCF4811115C06E
:1012300084E0289FF0011124E152F94F81819081CF
:10124000971302C091E0861390E0892F81702F5F81
:10125000283208F020E03F5FE4CF08951F920F92FC
:101260000FB60F9211248F939F93F89432990AC06E
:101270008091040190910501019721F010920501E0
:101280001092040134990CC08091040190910501E1
:10129000892B31F081E090E0909305018093040167
:1012A00033990CC08091040190910501039731F0AE
:1012B00082E090E0909305018093040135990CC081
:1012C0008091040190910501029731F083E090E054
:1012D000909305018093040178949F918F910F90D2
:1012E0000FBE0F901F901895CF93DF9300D01F92E1
:1012F000CDB7DEB70E94EF080E945B016799FECF71
:101300000E94A70640901101512CC20102979B83B5
:101310008A832091100129832A803B80022F10E0CC
:10132000780182E0E81AF1080E94060280E090E06D
:101330000E94720880E094E00E94770860910B019F
:1013400070910A0180E090E00E9497082981C22EE6
:10135000D12C82E0C81AD1080E94AD0D6A817B8130
:101360000E940B0C8F5F8093D0060E94AD0DB601DA
:101370000E940B0C8F5F8093CF0660910A018091D1
:101380000B010E9406098111E7CF0E94AD0D6EE1AD
:1013900070E00E940B0C8F5F8093CC06789498E2EB
:1013A000692E712C22E7C22E26E0D22E520191E046
:1013B000A91AB1084801E1E08E1A91088091040150
:1013C00090910501892B31F48091020190910301E4
:1013D000019721F18091040190910501019731F469
:1013E0008091020190910301892BC1F08091040149
:1013F00090910501039731F48091020190910301CE
:10140000029761F08091040190910501029779F4AF
:101410008091020190910301039749F480910201A8
:1014200090910301909305018093040110C0809175
:10143000020190910301909301018093000180913A
:101440000401909105019093030180930201909112
:101450000B018091D006981324C090910A018091CD
:10146000CF0698131EC08091C9068F5F8093C9066E
:101470000E94AD0DB1010E940B0C8F5F8093D006CE
:101480000E94AD0DB7010E940B0C8F5F8093CF06B9
:101490006091CF068091D0060E9406098111E8CFA5
:1014A00006C00E94C708862F672F0E94F80180910E
:1014B000CB069091CC06891333C08091CA0688234D
:1014C00031F06091CD068091CE060E94F801909196
:1014D000CA0681E089278093CA060E94AD0DB1013A
:1014E0000E940B0C8F5F8093CE060E94AD0DB7015A
:1014F0000E940B0C8F5F8093CD066091CF06809188
:10150000D0060E9406098111E8CF0E94AD0DB301FB
:101510000E940B0C8F5F8093CC061092CB0603C009
:101520008F5F8093CB066091CF068091D00670E0EC
:1015300090E00E942D038091CA06882341F06091BB
:10154000CD0670E08091CE0690E00E94310380913C
:10155000C0069091C106029734F060910801809115
:1015600009010E94EA018091C0069091C106409154
:1015700000015091010160910A01181619063CF40E
:1015800080910B0170E090E00E944E0306C08091B4
:101590000B0170E090E00E94350360910B017091A7
:1015A0000A012091040130910501C9010E949708A8
:1015B0008091C0069091C106029794F0E091C20616
:1015C000F091C306EE0FFF1FEE0FFF1FE152F94F20
:1015D00042815381618170E0808190E00E946703C5
:1015E00061E070E08CE890E00E9464088091C90698
:1015F0001F928F93DF92CF920E94B80360910A01ED
:1016000080910B010E9406098093C8068091C8064C
:101610000F900F900F900F90811110C090910B01BF
:101620008091CE06981306C020910A0181E0909126
:10163000CD06291380E081708093C80680910B014C
:101640008093090180910A0180930801809104012F
:1016500090910501029729F480910B018F5F80938F
:101660000B018091040190910501019729F480916B
:101670000A018F5F80930A01809104019091050116
:10168000892B29F480910A01815080930A0180916D
:10169000040190910501039729F480910B01815079
:1016A00080930B018091C906863040F4FFE72AE160
:1016B00086E0F15020408040E1F71FC08091C906CC
:1016C0008B3040F49FEFE1EEF4E09150E040F040C9
:1016D000E1F713C08091C906853140F42FE789EA0C
:1016E00093E0215080409040E1F707C0EFEFF0E732
:1016F00022E0E150F0402040E1F700C0000080917E
:101700000B0190E08A159B059CF480910B018823C6
:1017100079F080910A0190E0881599054CF4809148
:101720000A01882329F08091C806882309F446CE4F
:10173000F89480E090E00E9477088FEF9FEF0E947E
:1017400072080E94060260E570E082E890E00E9464
:1017500064088CE796E09F938F930E94B80364E639
:1017600070E087E890E00E94640880EE9FEF0E949E
:1017700072088091C9061F928F9382E796E09F932B
:101780008F930E94B8038FEF9FEF0E94720868E763
:1017900070E082E390E00E94640887E896E09F93FF
:1017A0008F930E94B8030FB6F894DEBF0FBECDBF73
:1017B0006799FECF0E94A70685E080930B01809376
:1017C0000A0181E080930901809308011092D006FC
:1017D0001092CF061092C90682E090E09093050126
:1017E0008093040190930301809302011092C30639
:1017F0001092C2068FEF9FEF90930701809306012E
:101800001092C1061092C0061092C8061092CA0625
:101810001092CB0689CD97FB072E16F4009407D0C3
:1018200077FD09D00E941F0C07FC05D03EF490956F
:1018300081959F4F0895709561957F4F0895AA1BDC
:10184000BB1B51E107C0AA1FBB1FA617B70710F0AB
:10185000A61BB70B881F991F5A95A9F780959095DD
:10186000BC01CD0108950E94470C0C94280D0E94E4
:10187000210D58F00E941A0D40F029F45F3F29F025
:101880000C94110D51110C945C0D0C94170D0E94C9
:10189000390D68F39923B1F3552391F3951B550B3B
:1018A000BB27AA2762177307840738F09F5F5F4F33
:1018B000220F331F441FAA1FA9F335D00E2E3AF072
:1018C000E0E832D091505040E695001CCAF72BD08A
:1018D000FE2F29D0660F771F881FBB1F26173707DB
:1018E0004807AB07B0E809F0BB0B802DBF01FF270D
:1018F00093585F4F3AF09E3F510578F00C94110DCC
:101900000C945C0D5F3FE4F3983ED4F38695779595
:101910006795B795F7959F5FC9F7880F911D9695C5
:10192000879597F90895E1E0660F771F881FBB1F21
:10193000621773078407BA0720F0621B730B840BCE
:10194000BA0BEE1F88F7E09508950E94410D88F0CC
:101950009F5798F0B92F9927B751B0F0E1F0660F73
:10196000771F881F991F1AF0BA95C9F714C0B130B4
:1019700091F00E945B0DB1E008950C945B0D672F10
:10198000782F8827B85F39F0B93FCCF386957795E3
:101990006795B395D9F73EF49095809570956195CC
:1019A0007F4F8F4F9F4F0895E89409C097FB3EF4F7
:1019B00090958095709561957F4F8F4F9F4F99239C
:1019C000A9F0F92F96E9BB279395F695879577951A
:1019D0006795B795F111F8CFFAF4BB0F11F460FFDA
:1019E0001BC06F5F7F4F8F4F9F4F16C0882311F032
:1019F00096E911C0772321F09EE8872F762F05C046
:101A0000662371F096E8862F70E060E02AF09A95E0
:101A1000660F771F881FDAF7880F9695879597F9D5
:101A2000089597F99F6780E870E060E008959FEF60
:101A300080EC089500240A94161617061806090665
:101A4000089500240A941216130614060506089534
:101A5000092E0394000C11F4882352F0BB0F40F4BC
:101A6000BF2B11F460FF04C06F5F7F4F8F4F9F4FFC
:101A7000089557FD9058440F551F59F05F3F71F07E
:101A80004795880F97FB991F61F09F3F79F08795E5
:101A90000895121613061406551FF2CF4695F1DF6E
:101AA00008C0161617061806991FF1CF86957105FE
:101AB000610508940895E894BB2766277727CB0132
:101AC00097F908958F929F92AF92BF92CF92DF9233
:101AD000EF92FF92CF93DF93EC01688179818A8145
:101AE0009B81611571058105910521F464E279ED11
:101AF0008BE597E02DE133EF41E050E00E94BC0D13
:101B000049015A019B01AC01A7EAB1E40E94DB0D37
:101B10006B017C01ACEEB4EFA50194010E94E90DCC
:101B2000DC01CB018C0D9D1DAE1DBF1DB7FF03C099
:101B30000197A109B04888839983AA83BB839F77C3
:101B4000DF91CF91FF90EF90DF90CF90BF90AF905B
:101B50009F908F9008950C94620D8CE091E00C940E
:101B6000620DA0E0B0E080930C0190930D01A09372
:101B70000E01B0930F010895052E97FB1EF40094FB
:101B80000E94D30D57FD07D00E94EE0D07FC03D035
:101B90004EF40C94D30D50954095309521953F4FC0
:101BA0004F4F5F4F089590958095709561957F4F49
:101BB0008F4F9F4F08950E94100EA59F900DB49FC8
:101BC000900DA49F800D911D11240895B7FF0C94D2
:101BD000DB0D0E94DB0D821B930B0895A1E21A2EF0
:101BE000AA1BBB1BFD010DC0AA1FBB1FEE1FFF1FC1
:101BF000A217B307E407F50720F0A21BB30BE40B11
:101C0000F50B661F771F881F991F1A9469F7609557
:101C10007095809590959B01AC01BD01CF01089511
:101C2000A29FB001B39FC001A39F700D811D11241D
:101C3000911DB29F700D811D1124911D0895F8947E
:021C4000FFCFD4
:101C4200020002000200FFFF010105050100000081
:101C5200182020FD20FD20FD20FD20FD20FD20FD7F
:101C620020FD20FD20FD20FD20FD20FD20FD20FD8A
:101C720020FD20FD20FD20FD20FD000020FD20FD97
:101C820020FD20FD20FD20FD20FD20FD00000000A4
:101C920020FD20FD20FD20FD20FD20FD20FD20FD5A
:101CA20000000000000020FD20FD20FD20FD20FDA1
:101CB20020FD000000000000000020FD20FD20FDAE
:101CC20020FD20FD20FD00000000000000000000BB
:101CD20020FD20FD20FD20FD00000000000000008E
:101CE2000000000020FD20FD20FD20FD000000007E
:101CF2000000000000000000000020FD20FD0000A8
:101D0200000000000000000000000000000020FDB4
:101D120020FD0000000000000000000000000000A4
:101D220000F80000000000F80000000000000000C1
:101D320000000000000000F800F8000000000000B1
:101D42000000000000000000000000F800F80000A1
:101D52000000000000000000000020FD20FD20FD2A
:101D620020FD20FD20FD00000000000020FD20FDE0
:101D720020FD20FD20FD20FD20FD20FD000020FD96
:101D820020FD20FD20FD20FD20FD20FD20FD20FD69
:101D920020FD20FD20FD000020FD20FD20FD20FD76
:101DA200000020FD20FD20FD20FD20FD20FD20FD66
:101DB20020FD20FD20FD20FD20FD20FD20FD20FD39
:101DC20020FD20FD20FD20FD20FD20FD20FD20FD29
:101DD20020FD20FD20FD20FD20FD20FD20FD20FD19
:101DE20020FD00000000000000F80000000000F8E4
:101DF200000000000000000000000000000000F8E9
:101E020000F80000000000000000000000000000D8
:101E1200000000F800F800000000000000000000D0
:101E2200000020FD20FD20FD20FD20FD20FD000002
:101E32000000000020FD20FD20FD20FD20FD20FDF2
:101E420020FD20FD000020FD20FD20FD20FD20FDC5
:101E520020FD20FD20FD20FD20FD20FD20FD0000B5
:101E620020FD20FD20FD20FD000020FD20FD20FDA5
:101E720020FD20FD20FD20FD20FD20FD20FD20FD78
:101E820020FD000020FD20FD20FD20FD20FD20FD85
:101E920020FD20FD00000000000020FD20FD20FDAF
:101EA20020FD20FD20FD0000000000000000008851
:101EB2000088B0DD00880088008800000000000073
:101EC20000880088008800880088008800880088D0
:101ED200000000880088B0DD008800880088B0DD3E
:101EE20000880088008800880088008800880088B0
:101EF2000088008800880088B0DDB0DD0088008896
:101F0200008800880088008800880088008800888F
:101F1200008800880088B0DD00880088B0DD008875
:101F220000880000008800880088008800880088F7
:101F3200008800880000000000000000228A228A37
:101F4200228A228A00000000000000000000000037
:101F5200228A228A228A228A0000000000000000CF
:101F6200000000000000000000000000000000006F
:101F7200000000000000000045A100002003200333
:101F8200000000000000000000000000000045A169
:101F920020032003000000000000000000000000F9
:101FA200000045A100000000000000000000000049
:101FB20000F800F8000045A1000000F800F8000059
:101FC200000000F800F800F800F800F800F800F847
:101FD200B0DDB0DD000000F800F800F800F800F80D
:101FE20000F800F800F8B0DD000000F800F800F892
:101FF20000F800F800F800F800F800F8000000F817
:1020020000F800F800F800F800F800F800F800F80E
:102012000000000000F800F800F800F800F800F8EE
:1020220000F8000000000000000000F800F800F8CE
:1020320000F800F800000000000020205F5F5F5FF2
:102042005F5F5F5F5F205F5F5F5F5F5F5F2020209A
:102052002020205F5F5F5F5F2020205F5F5F5F2047
:10206200205F5F2E5F5F5F5F5F5F5F5F5F5F5F0A43
:10207200002F2020205F5F5F5F5F2F205C202020E9
:102082002020205C202020202F20205F20205C2088
:102092007C202020207C2F205F7C5C5F2020205F22
:1020A2005F5F5F5F2F0A005C5F5F5F5F5F20205CA6
:1020B20020202F2020207C2020205C20202F202068
:1020C2002F5F5C20205C7C2020202020203C2020D0
:1020D200207C202020205F5F295F0A002F20202003
:1020E20020202020205C2F202020207C2020202047
:1020F2005C2F202020207C202020205C20202020FB
:102102007C20205C20207C20202020202020205C9D
:102112000A002F5F5F5F5F5F5F5F20202F5C5F5F62
:102122005F5F7C5F5F20202F5C5F5F5F5F7C5F5F34
:1021320020202F5F5F5F5F7C5F5F205C2F5F5F5FB0
:102142005F5F5F5F20202F0A0020202020202020B8
:10215200205C2F2020202020202020205C2F2020E7
:10216200202020202020205C2F2020202020202022
:10217200205C2F20202020202020205C2F0057656B
:102182006C636F6D6520746F20536E616B65210007
:102192005072657373207468652063656E7465722E
:1021A20020627574746F6E20746F20737461727420
:1021B2002E0053636F72653A2025640047616D6596
:1021C200204F7665722100507265737320746865C2
:1021D2002063656E74726520627574746F6E20740C
:0E21E2006F20706C617920616761696E2E005C
:00000001FF
