:100000000C943A010C9459010C9459010C94590127
:100010000C9459010C9459010C9459010C945901F8
:100020000C9459010C9459010C9459010C945901E8
:100030000C9459010C9459010C9459010C945901D8
:100040000C9459010C9459010C9459010C945901C8
:100050000C9459010C948D020C9459010C94590183
:100060000C9459010C9459010C9459010C945901A8
:100070000C9459010C9459010C9459010C94590198
:100080000C9459010C9459010C9459010C94590188
:100090000C9459010C945901000000000000005F0D
:1000A00000000003000300143E143E14242A7F2A9B
:1000B000124333086661364955225000050300009B
:1000C000001C2241000041221C0014083E081408B4
:1000D000083E0808005030000008080808080060C2
:1000E00060000020100804023E5149453E00040211
:1000F0007F00426151494622414949361814127F16
:100100001027454545393E494949320101710907E2
:100110003649494936264949493E003636000000ED
:10012000563600000814224100141414141400411F
:1001300022140802015109063E4159555E7E090903
:10014000097E7F494949363E414141227F41414133
:100150003E7F494949417F090909013E4141493AE8
:100160007F0808087F00417F4100304040403F7FCA
:10017000081422417F404040407F020C027F7F02F2
:1001800004087F3E4141413E7F090909061E2121A5
:10019000215E7F09090976264949493201017F011B
:1001A000013F4040403F1F2040201F7F2010207F04
:1001B00041221C224107087008076151494543004C
:1001C0007F41000002040810200000417F0004026B
:1001D0000102044040404040000102040020545409
:1001E00054787F4444443838444444443844444474
:1001F0007F385454541804047E0505085454543C64
:100200007F0804047800447D40002040443D007F86
:100210001028440000417F40007C047804787C086A
:1002200004047838444444387C1414140808141422
:10023000147C007C080404485454542004043F44B3
:10024000443C4040207C1C2040201C3C4030403C32
:1002500044281028440C5050503C4464544C4400F2
:100260000836414100007F0000414136080002018C
:100270000204020011241FBECFEFD0E2DEBFCDBFCB
:1002800012E0A0E0B1E0E6EFF7E100E00BBF02C052
:1002900007900D92A43CB107D9F723E0A4ECB2E09B
:1002A00001C01D92A034B207E1F70E9422080C940D
:1002B000F90B0C9400004091C4025091C5024832E1
:1002C000510524F5209104013091050127323105B3
:1002D00031F42FEF3FEF309305012093040120917B
:1002E0000401309105012F5F3F4F309305012093AA
:1002F0000401220F331FF901EE51FD4F91838083DA
:100300004F5F5F4F5093C5024093C4020895E09140
:10031000C602F091C7029F012F5F3F4F3093C70283
:100320002093C602EE0FFF1FEE51FD4F8081918199
:100330002832310521F41092C7021092C602209192
:10034000C4023091C502215031093093C502209377
:10035000C4020895E1E6F0E080E8808310820E9404
:10036000F60488B18C6388B9779A82E084BD83E013
:1003700085BD8CE787BDEEE6F0E0808182608083FA
:100380000895782F2091C6024091C4025091C50271
:100390004150510930E080E0E32FF0E0E417F50729
:1003A000BCF4811115C0E22FF0E0EE0FFF1FEE51FB
:1003B000FD4F81819081971302C091E0861390E0F8
:1003C000892F81702F5F283208F020E03F5FE4CF53
:1003D00008956CE370E080E090E00E947D0680E18B
:1003E00091E09F938F930E94E80687E491E09F93AA
:1003F0008F930E94E8068DE791E09F938F930E9470
:10040000E80682EB91E09F938F930E94E80688EEC6
:1004100091E09F938F930E94E8068FE192E09F9373
:100420008F930E94E80660EA70E08EE690E00E94FA
:100430007D0684E592E09F938F930E94E80664EB2B
:1004400070E08CE390E00E947D0686E692E09F9348
:100450008F930E94E8068DB79EB740960FB6F8942A
:100460009EBF0FBE8DBF08959AE0699FB001112411
:1004700020E23DEF4AE050E0EAE08E9FC001112407
:100480000C9400039AE0699FB001112420E038E841
:100490004AE050E0EAE08E9FC00111240C94000372
:1004A0009AE0699FB001112420E030E04AE050E07A
:1004B000EAE08E9FC00111240C9400030F931F9358
:1004C00000E014E029E030E04FE351E060E070E04C
:1004D00080E090E00E94D3022AE030E040E451E066
:1004E00066EE70E080E090E00E94D3022FEE30E0F4
:1004F00049E050E060E070E080E090E00E94D302CC
:1005000020EF30E04AE050E060E070E086E391E008
:100510000E94D3021F910F9108951F920F920FB660
:100520000F9211248F939F93F89432990AC080916F
:10053000020190910301019721F0109203011092A2
:10054000020134990CC08091020190910301892B22
:1005500031F081E090E090930301809302013399A0
:100560000CC08091020190910301039731F082E069
:1005700090E0909303018093020135990CC0809123
:10058000020190910301029731F083E090E0909393
:1005900003018093020178949F918F910F900FBE79
:1005A0000F901F9018950F931F93CF93DF93CDB7A4
:1005B000DEB728970FB6F894DEBF0FBECDBFFB01A4
:1005C000FE83ED83E20FF31FF887EF83282F9A83D2
:1005D0008983840F951F482F9C838B833A815C818C
:1005E0007E818E2F98850E94BE0328960FB6F894C0
:1005F000DEBF0FBECDBFDF91CF911F910F91089548
:100600000F931F934150510989019A010E94D3020F
:100610001F910F91089593E89093B00091E090930B
:10062000B1008093B300089590933703809336030D
:1006300026E330E020930040009779F480EF90E0CB
:10064000909333038093320380E491E090933503D9
:100650008093340388E490E034C08130910579F4CC
:1006600080E491E0909333038093320380EF90E035
:10067000909335038093340388EE90E022C082305B
:10068000910579F480EF90E09093330380933203E7
:1006900080E491E0909335038093340388E890E000
:1006A00010C0039781F480E491E09093330380932A
:1006B000320380EF90E0909335038093340388E217
:1006C00090E0809300418AE290E08093004020E037
:1006D00030E03093004120930041809132039091AB
:1006E0003303019790930041809300418BE290E0A7
:1006F0008093004030930041209300418091340367
:1007000090913503019790930041809300410895A3
:10071000CF93873748F4883048F08D3350F48F31C9
:1007200050F4803120F009C086E703C088E0C3E0C0
:1007300005C0C0E003C0C1E001C0C2E021EB30E071
:1007400020930040C0930041682F70E080E090E06B
:100750000E94B00A9B01AC0160E070E080EF94E47D
:100760000E940D0A0E947F0A70E002C0759567958D
:10077000CA95E2F760930041CF9108950F931F93BC
:10078000CF93DF93CDB7DEB728970FB6F894DEBFCF
:100790000FBECDBF29833A834B835C836D837E83F9
:1007A0008F83988769817A812B813C814D815E811D
:1007B0008F819885EAE2F0E0E09300407093004179
:1007C000609300413093004120930041EBE2F0E060
:1007D000E0930040509300414093004190930041CA
:1007E00080930041ECE2F0E0E09300402F5F3F4F48
:1007F000261B370B0196841B950B2817390790F49D
:10080000482F4770429FB001439F700D112453E061
:10081000969587955A95E1F7829FA001839F500D89
:10082000112411C0422F4770489FB001499F700D9D
:10083000112443E0369527954A95E1F7289FA001BA
:10084000299F500D1124862F8770815028F0109316
:10085000004100930041F9CFCB0123E096958795A5
:100860002A95E1F7840F951F019708F11093004135
:100870000093004110930041009300411093004108
:1008800000930041109300410093004110930041F8
:1008900000930041109300410093004110930041E8
:1008A000009300411093004100930041DDCF289652
:1008B0000FB6F894DEBF0FBECDBFDF91CF911F9171
:1008C0000F910895EF92FF920F931F93CF93DF93B1
:1008D000CDB7DEB728970FB6F894DEBF0FBECDBFF9
:1008E00029833A834B835C836D837E838F839887D0
:1008F00089819A81EB80FC806D817E81AF81B88592
:100900002AE230E020930040909300418093004120
:10091000F0920041E09200412BE230E02093004051
:100920007093004160930041B0930041A093004157
:100930002CE230E020930040E816F906A0F0A80170
:100940009B018A01A217B30760F04E5F5F4FF80169
:100950000081118110930041009300412F5F3F4FB0
:10096000F0CF0196E9CF28960FB6F894DEBF0FBE00
:10097000CDBFDF91CF911F910F91FF90EF90089520
:100980000F931F93CF93DF93CDB7DEB728970FB6A2
:10099000F894DEBF0FBECDBFE2E3F3E0178216820C
:1009A000118610861A821982808191810197482FC1
:1009B0009C838B831E821D828281938101979887FD
:1009C0008F830485158520E03A815C8160E07E811B
:1009D00098850E94BE0328960FB6F894DEBF0FBE1E
:1009E000CDBFDF91CF911F910F91089586E0809345
:1009F000750080E8809374003F9A249A8FEC97E00A
:100A00000197F1F700C0000047988FE39CE9019738
:100A1000F1F700C00000479A9FEF2DEE82E0915061
:100A200020408040E1F700C0000088E290E0809321
:100A3000004081E190E0809300409FEF26E781E055
:100A4000915020408040E1F700C0000021E030E0FC
:100A50008BEC90E0809300402093004180EC90E08C
:100A60008093004088E096E290930041809300419B
:100A700020E130E081EC90E0809300402093004141
:100A800085EC90E0809300408EE395E390930041E5
:100A90008093004125EB30E087EC90E080930040AC
:100AA0002093004121E030E086EF90E08093004009
:100AB0002093004180E090E09093004180930041BA
:100AC00025E530E08AE390E08093004020930041E8
:100AD00081E090E00E9414030E94C004E2E3F3E08E
:100AE0001782168211861086158614868FEF9FEF67
:100AF0009387828789E290E0809300409FE728E314
:100B000081E0915020408040E1F700C0000020E0EB
:100B100030E085E390E08093004020930041EAE6D6
:100B2000F0E08081806280832C9A08959F92AF923A
:100B3000BF92CF92DF92EF92FF920F931F93CF93CA
:100B4000DF93609138037091390320913A0330911B
:100B50003B038A30F9F41092390310923803285F6E
:100B60003F4F30933B0320933A038091340390919D
:100B700035032817390708F4A1C0DF91CF911F91E1
:100B80000F91FF90EF90DF90CF90BF90AF909F902C
:100B90000C94C00490EE980F9F3508F08FC0A90107
:100BA000495F5F4F082E000C990B8097E5E0E89FA6
:100BB000E001E99FD00D11248BE290E0809300408A
:100BC00030930041209300415093004140930041F5
:100BD000CB01DB0114960AE210E0ECE2EE2EF12CE0
:100BE000A817B90780F100930040909300418093CB
:100BF00000419093004180930041E0920040FC014D
:100C0000E61BF70BEC0FFD1FE856FF4F94906901B0
:100C1000F1E04C155D05A8F0BF2EB92029F0A09099
:100C20003C03B0903D0304C0A0903E03B0903F034E
:100C3000B0920041A0920041EFEFCE1ADE0AFF0F02
:100C4000E8CF0196CDCF6AE270E0609300409093C8
:100C500000418093004190930041809300418CE2D9
:100C600090E0809300404217530758F080913E0374
:100C700090913F0390930041809300412F5F3F4F3D
:100C8000F2CF8091380390913903069690933903FF
:100C900080933803209132033091330382179307F6
:100CA00068F0109239031092380380913A039091C2
:100CB0003B03089690933B0380933A03DF91CF91D7
:100CC0001F910F91FF90EF90DF90CF90BF90AF906A
:100CD0009F9008950F931F93CF938C01C0E0F8016C
:100CE000EC0FF11D8081882321F00E949605CF5FD3
:100CF000F6CFCF911F910F910895E2E3F3E0978330
:100D00008683718760870895E2E3F3E093878287A3
:100D100075876487089590933D0380933C030895FD
:100D200090933F0380933E0308950F931F93CF93B7
:100D30008C01709339036093380350933B034093C5
:100D40003A03C0E0F801EC0FF11D8081882321F007
:100D50000E949605CF5FF6CFCF911F910F91089516
:100D6000E091E002F091E1029F012F5F3F4F30934D
:100D7000E1022093E002808308958A3034F090915C
:100D8000D102911104C097E503C090E301C097E33D
:100D9000890F0E94B00681E08093D0020895AC01D3
:100DA0002091D2023091D30280E02417350720F041
:100DB000241B350B8F5FF9CF3093D3022093D202DF
:100DC0009091D002911101C081110C94BD0608953B
:100DD0004F925F926F927F928F929F92AF92BF924B
:100DE000CF92DF92EF92FF920F931F93CF93DF93F7
:100DF00000D0CDB7DEB7FE017596C190D1908F01BE
:100E000084ED882E82E0982E90E8692E712CF601F0
:100E10008081882309F401C1853231F02FEFC21A95
:100E2000D20A0E949605F3CFF6018181803329F022
:100E3000F2E0CF0ED11CE12C08C0F60182819601B0
:100E40002D5F3F4F6901EE24E39490ED980F9A30A7
:100E500078F4F601F12C6F0190ED980F9A3048F478
:100E60008F2D880F880FF80EFF0CF90E8191F3CFAC
:100E7000F12C9092E1028092E0021092D00283362F
:100E800009F486C0BCF4853209F491C024F48823A7
:100E900009F4C3C08FC0883509F440C0823609F018
:100EA00089C0F801A080B1800E5F1F4F412C512CEA
:100EB000BB2461C0833709F474C01CF4843631F05C
:100EC00079C0853719F0883749F174C0580132E08C
:100ED000A30EB11CF801208131813093D3022093FD
:100EE000D202843661F437FF0AC031952195310969
:100EF0003093D3022093D2028DE20E94B00680E1AB
:100F000097E20E94CF0688EE93E00E94CF0684E627
:100F100090E00E94CF068AE090E01BC091E0883507
:100F200009F090E09093D1025801F2E0AF0EB11CAD
:100F3000F801808191819093D3028093D20280E066
:100F400090E10E94CF0680E091E00E94CF0680E110
:100F500090E00E94CF068091D2020E94BD068501DA
:100F600029C08EE20E94B006FFEF4F1A5F0A28E008
:100F700042165104F9F0C301042C02C095958795DF
:100F80000A94E2F78A219B21892B59F381E3EACF66
:100F9000580132E0A30EB11CF80180810E94B00616
:100FA000DECFF801208131810E5F1F4F05C085E241
:100FB0000E94B00624ED32E0E091E002F091E102FF
:100FC00010823093E1022093E002C9010196FC01F6
:100FD00031974081442321F01F1414F4FA94F6CF82
:100FE0009093E1028093E0021F146CF4E11002C0C0
:100FF00080E201C080E329833A830E949605FA9437
:101000003A812981F1CF7901F70181917F0188230C
:1010100009F4FDCE0E949605F7CF0F900F90DF9157
:10102000CF911F910F91FF90EF90DF90CF90BF90E5
:10103000AF909F908F907F906F905F904F900895AA
:101040000C9496050E94AA010E94E9016799FECFBF
:101050000E94C0048EE1E82EF12C96E1C92ED12C1D
:10106000C8E8D2E022E9A22E22E0B22E3DE9832E8A
:1010700032E0932E45E0642E7724739402E010E072
:101080000E945E0280E090E00E948B0680E094E087
:101090000E94900680910901909108010E945B01D5
:1010A0000E94870BB7010E94E5098F5F8093CF02F2
:1010B0000E94870BB6010E94E5098F5F8093CE02E4
:1010C00060910801809109010E94C1018111E8CF5E
:1010D00078948091020190910301892B31F48091E1
:1010E000000190910101019721F1809102019091FD
:1010F0000301019731F48091000190910101892B46
:10110000C1F08091020190910301039731F4809125
:10111000000190910101029761F08091020190918C
:101120000301029779F480910001909101010397E6
:1011300049F4809100019091010190930301809303
:10114000020108C080910201909103019093010176
:1011500080930001909109018091CF02981324C0DF
:10116000909108018091CE0298131EC08091CD020B
:101170008F5F8093CD020E94870BB7010E94E50923
:101180008F5F8093CF020E94870BB6010E94E50912
:101190008F5F8093CE026091CE028091CF020E9439
:1011A000C1018111E8CF05C00E948701692F0E940B
:1011B00050026091CE028091CF020E944202609163
:1011C0000801809109010E943402809109019091E7
:1011D00008010E945B0161E070E08CE890E00E94F1
:1011E0007D068091CD021F928F93DF93CF930E9453
:1011F000E80660910801809109010E94C101809375
:10120000CC028091090180930701809108018093AD
:10121000060180910201909103010F900F900F90B1
:101220000F90029729F4809109018F5F8093090143
:101230008091020190910301019729F480910801A6
:101240008F5F809308018091020190910301892BA7
:1012500029F4809108018150809308018091020156
:1012600090910301039729F48091090181508093A3
:1012700009018091CD02863040F49FE72AE186E0A3
:10128000915020408040E1F71FC08091CD028B300B
:1012900040F49FEF21EE84E0915020408040E1F740
:1012A00013C08091CD02803140F49FE729EA83E0AA
:1012B000915020408040E1F707C09FEF20E782E097
:1012C000915020408040E1F700C00000809109016A
:1012D00090E04F9794F480910901882371F08091F8
:1012E000080190E047974CF480910801882329F089
:1012F0008091CC02882309F4ECCEF89480E090E051
:101300000E9490068FEF9FEF0E948B060E945E0264
:1013100060E570E082E890E00E947D06BF92AF92A7
:101320000E94E80664E670E087E890E00E947D068F
:1013300080EE9FEF0E948B068091CD021F928F93CB
:10134000DF93CF930E94E8068FEF9FEF0E948B06FA
:1013500068E770E082E390E00E947D069F928F92A2
:101360000E94E8068DB79EB708960FB6F8949EBF08
:101370000FBE8DBF6799FECF0E94C0046092090125
:101380006092080170920701709206011092CF02DC
:101390001092CE021092CD0210930301009302012D
:1013A00010930101009300011092C7021092C6022F
:1013B0008FEF9FEF90930501809304011092C50277
:1013C0001092C4021092CC025BCE97FB072E16F44B
:1013D000009407D077FD09D00E94F90907FC05D0D9
:1013E0003EF4909581959F4F0895709561957F4F3C
:1013F0000895AA1BBB1B51E107C0AA1FBB1FA6175C
:10140000B70710F0A61BB70B881F991F5A95A9F7AD
:1014100080959095BC01CD0108950E94210A0C94FD
:10142000020B0E94FB0A58F00E94F40A40F029F4D3
:101430005F3F29F00C94EB0A51110C94360B0C947D
:10144000F10A0E94130B68F39923B1F3552391F32A
:10145000951B550BBB27AA2762177307840738F023
:101460009F5F5F4F220F331F441FAA1FA9F335D080
:101470000E2E3AF0E0E832D091505040E695001C34
:10148000CAF72BD0FE2F29D0660F771F881FBB1FEE
:10149000261737074807AB07B0E809F0BB0B802DCC
:1014A000BF01FF2793585F4F3AF09E3F510578F0F8
:1014B0000C94EB0A0C94360B5F3FE4F3983ED4F3A4
:1014C000869577956795B795F7959F5FC9F7880FCC
:1014D000911D9695879597F90895E1E0660F771F1E
:1014E000881FBB1F621773078407BA0720F0621BAF
:1014F000730B840BBA0BEE1F88F7E09508950E94DA
:101500001B0B88F09F5798F0B92F9927B751B0F06F
:10151000E1F0660F771F881F991F1AF0BA95C9F777
:1015200014C0B13091F00E94350BB1E008950C94D5
:10153000350B672F782F8827B85F39F0B93FCCF388
:10154000869577956795B395D9F73EF490958095F4
:10155000709561957F4F8F4F9F4F0895E89409C014
:1015600097FB3EF490958095709561957F4F8F4FD6
:101570009F4F9923A9F0F92F96E9BB279395F695EC
:10158000879577956795B795F111F8CFFAF4BB0F6A
:1015900011F460FF1BC06F5F7F4F8F4F9F4F16C0CE
:1015A000882311F096E911C0772321F09EE8872F58
:1015B000762F05C0662371F096E8862F70E060E014
:1015C0002AF09A95660F771F881FDAF7880F96958D
:1015D000879597F9089597F99F6780E870E060E034
:1015E00008959FEF80EC089500240A9416161706BC
:1015F00018060906089500240A9412161306140604
:1016000005060895092E0394000C11F4882352F066
:10161000BB0F40F4BF2B11F460FF04C06F5F7F4F1E
:101620008F4F9F4F089557FD9058440F551F59F005
:101630005F3F71F04795880F97FB991F61F09F3FBF
:1016400079F087950895121613061406551FF2CFE8
:101650004695F1DF08C0161617061806991FF1CF38
:1016600086957105610508940895E894BB2766275F
:101670007727CB0197F908958F929F92AF92BF92EF
:10168000CF92DF92EF92FF92CF93DF93EC016881CC
:1016900079818A819B81611571058105910521F40C
:1016A00064E279ED8BE597E02DE133EF41E050E026
:1016B0000E94960B49015A019B01AC01A7EAB1E4D3
:1016C0000E94B50B6B017C01ACEEB4EFA501940157
:1016D0000E94C30BDC01CB018C0D9D1DAE1DBF1DF7
:1016E000B7FF03C00197A109B04888839983AA83F3
:1016F000BB839F77DF91CF91FF90EF90DF90CF90EA
:10170000BF90AF909F908F9008950C943C0B8AE00F
:1017100091E00C943C0BA0E0B0E080930A01909320
:101720000B01A0930C01B0930D010895052E97FBBA
:101730001EF400940E94AD0B57FD07D00E94C80B09
:1017400007FC03D04EF40C94AD0B509540953095AA
:1017500021953F4F4F4F5F4F08959095809570951D
:1017600061957F4F8F4F9F4F08950E94EA0BA59F71
:10177000900DB49F900DA49F800D911D112408958C
:10178000B7FF0C94B50B0E94B50B821B930B089509
:10179000A1E21A2EAA1BBB1BFD010DC0AA1FBB1F75
:1017A000EE1FFF1FA217B307E407F50720F0A21BE7
:1017B000B30BE40BF50B661F771F881F991F1A9454
:1017C00069F760957095809590959B01AC01BD017E
:1017D000CF010895A29FB001B39FC001A39F700DD8
:1017E000811D1124911DB29F700D811D1124911D29
:0617F0000895F894FFCFFC
:1017F60002000200FFFF010105050100000018209C
:1018060020205F5F5F5F5F5F5F5F5F205F5F5F5F9F
:101816005F5F5F2020202020205F5F5F5F5F2020CA
:10182600205F5F5F5F20205F5F2E5F5F5F5F5F5FB0
:101836005F5F5F5F5F0A002F2020205F5F5F5F5F53
:101846002F205C2020202020205C202020202F20FC
:10185600205F20205C207C202020207C2F205F7CA5
:101866005C5F2020205F5F5F5F5F2F0A005C5F5F29
:101876005F5F5F20205C20202F2020207C202020FE
:101886005C20202F20202F5F5C20205C7C202020E5
:101896002020203C2020207C202020205F5F295F04
:1018A6000A002F20202020202020205C2F2020200E
:1018B600207C202020205C2F202020207C2020201F
:1018C600205C202020207C20205C20207C202020E2
:1018D60020202020205C0A002F5F5F5F5F5F5F5F34
:1018E60020202F5C5F5F5F5F7C5F5F20202F5C5F47
:1018F6005F5F5F7C5F5F20202F5F5F5F5F7C5F5F66
:10190600205C2F5F5F5F5F5F5F5F20202F0A0020F4
:10191600202020202020205C2F2020202020202076
:1019260020205C2F2020202020202020205C2F201B
:10193600202020202020205C2F2020202020202056
:10194600205C2F0057656C636F6D6520746F2053A4
:101956006E616B6521005072657373207468652033
:1019660063656E74657220627574746F6E20746F31
:101976002073746172742E0053636F72653A20256A
:10198600640047616D65204F76657221005072656F
:101996007373207468652063656E74726520627562
:1019A60074746F6E20746F20706C6179206167614A
:0419B600696E2E0028
:00000001FF
